{
  "_format": "hh-sol-artifact-1",
  "contractName": "UserProfile",
  "sourceName": "contracts/UserProfile.sol",
  "abi": [
    {
      "anonymous": false,
      "inputs": [
        {
          "indexed": true,
          "internalType": "address",
          "name": "user",
          "type": "address"
        },
        {
          "indexed": false,
          "internalType": "uint256",
          "name": "newExpiry",
          "type": "uint256"
        }
      ],
      "name": "PremiumStatusUpdated",
      "type": "event"
    },
    {
      "anonymous": false,
      "inputs": [
        {
          "indexed": true,
          "internalType": "address",
          "name": "user",
          "type": "address"
        }
      ],
      "name": "ProfileCreated",
      "type": "event"
    },
    {
      "inputs": [],
      "name": "becomePremium",
      "outputs": [],
      "stateMutability": "payable",
      "type": "function"
    },
    {
      "inputs": [
        {
          "internalType": "string",
          "name": "_name",
          "type": "string"
        },
        {
          "internalType": "string",
          "name": "_bio",
          "type": "string"
        },
        {
          "internalType": "string",
          "name": "_imageHash",
          "type": "string"
        },
        {
          "internalType": "string",
          "name": "_hobby",
          "type": "string"
        },
        {
          "internalType": "uint8",
          "name": "_age",
          "type": "uint8"
        }
      ],
      "name": "createOrUpdateProfile",
      "outputs": [],
      "stateMutability": "nonpayable",
      "type": "function"
    },
    {
      "inputs": [
        {
          "internalType": "uint256",
          "name": "i",
          "type": "uint256"
        }
      ],
      "name": "getUserAddressByIndex",
      "outputs": [
        {
          "internalType": "address",
          "name": "",
          "type": "address"
        }
      ],
      "stateMutability": "view",
      "type": "function"
    },
    {
      "inputs": [],
      "name": "getUserCount",
      "outputs": [
        {
          "internalType": "uint256",
          "name": "",
          "type": "uint256"
        }
      ],
      "stateMutability": "view",
      "type": "function"
    },
    {
      "inputs": [
        {
          "internalType": "address",
          "name": "",
          "type": "address"
        }
      ],
      "name": "premiumExpiration",
      "outputs": [
        {
          "internalType": "uint256",
          "name": "",
          "type": "uint256"
        }
      ],
      "stateMutability": "view",
      "type": "function"
    },
    {
      "inputs": [
        {
          "internalType": "address",
          "name": "",
          "type": "address"
        }
      ],
      "name": "profiles",
      "outputs": [
        {
          "internalType": "string",
          "name": "name",
          "type": "string"
        },
        {
          "internalType": "string",
          "name": "bio",
          "type": "string"
        },
        {
          "internalType": "string",
          "name": "imageHash",
          "type": "string"
        },
        {
          "internalType": "string",
          "name": "hobby",
          "type": "string"
        },
        {
          "internalType": "uint8",
          "name": "age",
          "type": "uint8"
        },
        {
          "internalType": "uint256",
          "name": "createdAt",
          "type": "uint256"
        }
      ],
      "stateMutability": "view",
      "type": "function"
    },
    {
      "inputs": [
        {
          "internalType": "uint256",
          "name": "",
          "type": "uint256"
        }
      ],
      "name": "userList",
      "outputs": [
        {
          "internalType": "address",
          "name": "",
          "type": "address"
        }
      ],
      "stateMutability": "view",
      "type": "function"
    }
  ],
  "bytecode": "0x608060405234801561001057600080fd5b50611268806100206000396000f3fe6080604052600436106100705760003560e01c80639f4216e81161004e5780639f4216e8146100e5578063b5cb15f714610122578063bbe156271461014d578063cca76c5d1461018f57610070565b806305dee5e214610075578063337ba4d91461009e578063904de425146100a8575b600080fd5b34801561008157600080fd5b5061009c60048036038101906100979190610a61565b6101cc565b005b6100a66104cb565b005b3480156100b457600080fd5b506100cf60048036038101906100ca9190610bbb565b61065d565b6040516100dc9190610c01565b60405180910390f35b3480156100f157600080fd5b5061010c60048036038101906101079190610c48565b610675565b6040516101199190610c84565b60405180910390f35b34801561012e57600080fd5b506101376106b4565b6040516101449190610c01565b60405180910390f35b34801561015957600080fd5b50610174600480360381019061016f9190610bbb565b6106c1565b60405161018696959493929190610d3e565b60405180910390f35b34801561019b57600080fd5b506101b660048036038101906101b19190610c48565b61092a565b6040516101c39190610c84565b60405180910390f35b60008060003373ffffffffffffffffffffffffffffffffffffffff1673ffffffffffffffffffffffffffffffffffffffff1681526020019081526020016000206005015403610279576001339080600181540180825580915050600190039060005260206000200160009091909190916101000a81548173ffffffffffffffffffffffffffffffffffffffff021916908373ffffffffffffffffffffffffffffffffffffffff1602179055505b6040518060c001604052808a8a8080601f016020809104026020016040519081016040528093929190818152602001838380828437600081840152601f19601f82011690508083019250505050505050815260200188888080601f016020809104026020016040519081016040528093929190818152602001838380828437600081840152601f19601f82011690508083019250505050505050815260200186868080601f016020809104026020016040519081016040528093929190818152602001838380828437600081840152601f19601f82011690508083019250505050505050815260200184848080601f016020809104026020016040519081016040528093929190818152602001838380828437600081840152601f19601f8201169050808301925050505050505081526020018260ff168152602001428152506000803373ffffffffffffffffffffffffffffffffffffffff1673ffffffffffffffffffffffffffffffffffffffff168152602001908152602001600020600082015181600001908161040c9190610ff6565b5060208201518160010190816104229190610ff6565b5060408201518160020190816104389190610ff6565b50606082015181600301908161044e9190610ff6565b5060808201518160040160006101000a81548160ff021916908360ff16021790555060a082015181600501559050503373ffffffffffffffffffffffffffffffffffffffff167ff10ec97e920cde75887622583772c637595a40b1f7777c18e51ea36cd127475c60405160405180910390a2505050505050505050565b60006611c37937e080009050803414610519576040517f08c379a000000000000000000000000000000000000000000000000000000000815260040161051090611114565b60405180910390fd5b600062278d0090506000814261052f9190611163565b905042600260003373ffffffffffffffffffffffffffffffffffffffff1673ffffffffffffffffffffffffffffffffffffffff1681526020019081526020016000205411156105c65781600260003373ffffffffffffffffffffffffffffffffffffffff1673ffffffffffffffffffffffffffffffffffffffff168152602001908152602001600020546105c39190611163565b90505b80600260003373ffffffffffffffffffffffffffffffffffffffff1673ffffffffffffffffffffffffffffffffffffffff168152602001908152602001600020819055503373ffffffffffffffffffffffffffffffffffffffff167f54e9d3c8aa559c7058f0ec85f7f663a25e30e96fcf240583e32ac4fce0c53e6e826040516106509190610c01565b60405180910390a2505050565b60026020528060005260406000206000915090505481565b6001818154811061068557600080fd5b906000526020600020016000915054906101000a900473ffffffffffffffffffffffffffffffffffffffff1681565b6000600180549050905090565b60006020528060005260406000206000915090508060000180546106e490610e19565b80601f016020809104026020016040519081016040528092919081815260200182805461071090610e19565b801561075d5780601f106107325761010080835404028352916020019161075d565b820191906000526020600020905b81548152906001019060200180831161074057829003601f168201915b50505050509080600101805461077290610e19565b80601f016020809104026020016040519081016040528092919081815260200182805461079e90610e19565b80156107eb5780601f106107c0576101008083540402835291602001916107eb565b820191906000526020600020905b8154815290600101906020018083116107ce57829003601f168201915b50505050509080600201805461080090610e19565b80601f016020809104026020016040519081016040528092919081815260200182805461082c90610e19565b80156108795780601f1061084e57610100808354040283529160200191610879565b820191906000526020600020905b81548152906001019060200180831161085c57829003601f168201915b50505050509080600301805461088e90610e19565b80601f01602080910402602001604051908101604052809291908181526020018280546108ba90610e19565b80156109075780601f106108dc57610100808354040283529160200191610907565b820191906000526020600020905b8154815290600101906020018083116108ea57829003601f168201915b5050505050908060040160009054906101000a900460ff16908060050154905086565b60006001805490508210610973576040517f08c379a000000000000000000000000000000000000000000000000000000000815260040161096a906111e3565b60405180910390fd5b6001828154811061098757610986611203565b5b9060005260206000200160009054906101000a900473ffffffffffffffffffffffffffffffffffffffff169050919050565b600080fd5b600080fd5b600080fd5b600080fd5b600080fd5b60008083601f8401126109e8576109e76109c3565b5b8235905067ffffffffffffffff811115610a0557610a046109c8565b5b602083019150836001820283011115610a2157610a206109cd565b5b9250929050565b600060ff82169050919050565b610a3e81610a28565b8114610a4957600080fd5b50565b600081359050610a5b81610a35565b92915050565b600080600080600080600080600060a08a8c031215610a8357610a826109b9565b5b60008a013567ffffffffffffffff811115610aa157610aa06109be565b5b610aad8c828d016109d2565b995099505060208a013567ffffffffffffffff811115610ad057610acf6109be565b5b610adc8c828d016109d2565b975097505060408a013567ffffffffffffffff811115610aff57610afe6109be565b5b610b0b8c828d016109d2565b955095505060608a013567ffffffffffffffff811115610b2e57610b2d6109be565b5b610b3a8c828d016109d2565b93509350506080610b4d8c828d01610a4c565b9150509295985092959850929598565b600073ffffffffffffffffffffffffffffffffffffffff82169050919050565b6000610b8882610b5d565b9050919050565b610b9881610b7d565b8114610ba357600080fd5b50565b600081359050610bb581610b8f565b92915050565b600060208284031215610bd157610bd06109b9565b5b6000610bdf84828501610ba6565b91505092915050565b6000819050919050565b610bfb81610be8565b82525050565b6000602082019050610c166000830184610bf2565b92915050565b610c2581610be8565b8114610c3057600080fd5b50565b600081359050610c4281610c1c565b92915050565b600060208284031215610c5e57610c5d6109b9565b5b6000610c6c84828501610c33565b91505092915050565b610c7e81610b7d565b82525050565b6000602082019050610c996000830184610c75565b92915050565b600081519050919050565b600082825260208201905092915050565b60005b83811015610cd9578082015181840152602081019050610cbe565b60008484015250505050565b6000601f19601f8301169050919050565b6000610d0182610c9f565b610d0b8185610caa565b9350610d1b818560208601610cbb565b610d2481610ce5565b840191505092915050565b610d3881610a28565b82525050565b600060c0820190508181036000830152610d588189610cf6565b90508181036020830152610d6c8188610cf6565b90508181036040830152610d808187610cf6565b90508181036060830152610d948186610cf6565b9050610da36080830185610d2f565b610db060a0830184610bf2565b979650505050505050565b7f4e487b7100000000000000000000000000000000000000000000000000000000600052604160045260246000fd5b7f4e487b7100000000000000000000000000000000000000000000000000000000600052602260045260246000fd5b60006002820490506001821680610e3157607f821691505b602082108103610e4457610e43610dea565b5b50919050565b60008190508160005260206000209050919050565b60006020601f8301049050919050565b600082821b905092915050565b600060088302610eac7fffffffffffffffffffffffffffffffffffffffffffffffffffffffffffffffff82610e6f565b610eb68683610e6f565b95508019841693508086168417925050509392505050565b6000819050919050565b6000610ef3610eee610ee984610be8565b610ece565b610be8565b9050919050565b6000819050919050565b610f0d83610ed8565b610f21610f1982610efa565b848454610e7c565b825550505050565b600090565b610f36610f29565b610f41818484610f04565b505050565b5b81811015610f6557610f5a600082610f2e565b600181019050610f47565b5050565b601f821115610faa57610f7b81610e4a565b610f8484610e5f565b81016020851015610f93578190505b610fa7610f9f85610e5f565b830182610f46565b50505b505050565b600082821c905092915050565b6000610fcd60001984600802610faf565b1980831691505092915050565b6000610fe68383610fbc565b9150826002028217905092915050565b610fff82610c9f565b67ffffffffffffffff81111561101857611017610dbb565b5b6110228254610e19565b61102d828285610f69565b600060209050601f831160018114611060576000841561104e578287015190505b6110588582610fda565b8655506110c0565b601f19841661106e86610e4a565b60005b8281101561109657848901518255600182019150602085019450602081019050611071565b868310156110b357848901516110af601f891682610fbc565b8355505b6001600288020188555050505b505050505050565b7f466565206d75737420626520302e30303520424e420000000000000000000000600082015250565b60006110fe601583610caa565b9150611109826110c8565b602082019050919050565b6000602082019050818103600083015261112d816110f1565b9050919050565b7f4e487b7100000000000000000000000000000000000000000000000000000000600052601160045260246000fd5b600061116e82610be8565b915061117983610be8565b925082820190508082111561119157611190611134565b5b92915050565b7f4f4f420000000000000000000000000000000000000000000000000000000000600082015250565b60006111cd600383610caa565b91506111d882611197565b602082019050919050565b600060208201905081810360008301526111fc816111c0565b9050919050565b7f4e487b7100000000000000000000000000000000000000000000000000000000600052603260045260246000fdfea264697066735822122030d1df86f50cfca76f5f83e9a4414a2e6b24f01ba8020de104cd8ac731cb977664736f6c63430008140033",
  "linkReferences": {},
  "deployedLinkReferences": {}
}